:020000040000FA
:10000000006A040E006E016A026A0E0E026E036A36
:100010000F0E036EF19E000E956EF00E936E000EA5
:100020008C6E000E8A6E0150006201D028D002C092
:100030008AFF81B802D0000E036ED880023602C05B
:100040008AFF81BA02D0010E036ED880023602C048
:100050008AFF81BC02D0020E036ED880023602C035
:100060008AFF81BE02D0030E036E010E0126026AD2
:100070000E0E026E03C08CFF0F0E036ED4D7016A02
:060080000F0E036ED0D745
:02008600000078
:020000040030CA
:0100000024DB
:010001000AF4
:0100020020DD
:0100030000FC
:0100050001F9
:010006008079
:010008000FE8
:01000900C036
:01000A000FE6
:01000B00E014
:01000C000FE4
:01000D0040B2
:00000001FF
